S00E000032302D4C44432E73726563B4
S11300000C942A000C943F000C943F000C943F0085
S11300100C943F000C943F000C943F000C943F0060
S11300200C943F000C943F000C943F000C943F0050
S11300300C943F000C943F000C943F000C943F0040
S11300400C943F000C943F000C943F000C943F0030
S11300500C943F0011241FBECFE5D8E0DEBFCDBF16
S113006010E0A0E6B0E0EEEDF5E002C005900D92E0
S1130070A637B107D9F70E94E9010C94ED020C945C
S11300800000823419F118F4813439F0089583346E
S1130090B1F1843409F44CC00895413059F42AB3C1
S11300A081E090E002C0880F991F6A95E2F7822BE5
S11300B08ABB08952AB381E090E002C0880F991F9B
S11300C06A95E2F7809582238ABB0895413059F4FA
S11300D027B381E090E002C0880F991F6A95E2F788
S11300E0822B87BB089527B381E090E002C0880F7C
S11300F0991F6A95E2F78095822387BB0895413062
S113010059F424B381E090E002C0880F991F6A95E6
S1130110E2F7822B84BB089524B381E090E002C00F
S1130120880F991F6A95E2F78095822384BB08950E
S1130130413059F421B381E090E002C0880F991F47
S11301406A95E2F7822B81BB089521B381E090E0A8
S113015002C0880F991F6A95E2F78095822381BBBC
S11301600895823419F118F4813439F008958334F0
S1130170B1F1843409F44CC00895413059F42BB3DF
S113018081E090E002C0880F991F6A95E2F7822B04
S11301908BBB08952BB381E090E002C0880F991FB8
S11301A06A95E2F7809582238BBB0895413059F418
S11301B028B381E090E002C0880F991F6A95E2F7A6
S11301C0822B88BB089528B381E090E002C0880F99
S11301D0991F6A95E2F78095822388BB0895413080
S11301E059F425B381E090E002C0880F991F6A9505
S11301F0E2F7822B85BB089525B381E090E002C02D
S1130200880F991F6A95E2F78095822385BB08952C
S1130210413059F422B381E090E002C0880F991F65
S11302206A95E2F7822B82BB089522B381E090E0C5
S113023002C0880F991F6A95E2F78095822382BBDA
S11302400895823459F018F4813431F008958334D8
S113025039F0843439F008956BBB089568BB089570
S113026065BB089562BB089541E060E082E40E94AA
S1130270B10087EE93E00197F1F700C0000040E081
S113028060E082E40E94B10087EE93E00197F1F709
S113029000C000000895682F81E40E94210140E01D
S11302A062E082E40E94B1000E94340189EF90E090
S11302B00197F1F700C000000895CF93DF938FE416
S11302C093EC0197F1F700C00000C0E0D0E006C055
S11302D041E06C2F81E40E9441002196C830D10591
S11302E0BCF341E060E082E40E94410041E062E04E
S11302F082E40E94410041E061E082E40E94410006
S113030040E061E082E40E94B10088E30E944B0176
S113031089EF90E00197F1F700C000008EE00E94A1
S11303204B0189EF90E00197F1F700C0000081E0F4
S11303300E944B0183EC99E00197F1F700C00000A3
S113034086E00E944B0189EF90E00197F1F700C02D
S11303500000DF91CF910895682F81E40E9421016C
S113036041E062E082E40E94B1000E94340189EF1E
S113037090E00197F1F700C000000895CF93DF9358
S1130380EC0103C00E94AC01219688818111FACF4F
S1130390DF91CF9108959FEF980F923020F461314F
S11303A010F4611103C02FE7260F09C0813019F43E
S11303B02FE7260F04C0823011F42FEB260F822F73
S11303C00E944B0189EF90E00197F1F700C0000013
S11303D008950E945D0180E690E00E94BE0180E4E1
S11303E00E944B0188E00E94AC0188E00E94AC01AD
S11303F088E00E94AC0188E00E94AC0188E00E9481
S1130400AC0188E00E94AC0188E00E94AC0180E06D
S11304100E94AC0180E00E94AC0180E00E94AC012B
S113042080E00E94AC0185E10E94AC018FE10E9452
S1130430AC0180E00E94AC0180E00E94AC0180E04D
S11304400E94AC0180E00E94AC0180E00E94AC01FB
S113045089E00E94AC018AE00E94AC018FE00E9416
S1130460AC0180E10E94AC0180E00E94AC0180E01C
S11304700E94AC018EE00E94AC018AE00E94AC01B3
S11304808EE00E94AC0188E00E94AC0188E00E94EA
S1130490AC0188E00E94AC0188E00E94AC0180E0DD
S11304A00E94AC0180E00E94AC0180E00E94AC019B
S11304B080E00E94AC0185E10E94AC018FE10E94C2
S11304C0AC0180E00E94AC0180E00E94AC0180E0BD
S11304D00E94AC0180E00E94AC0182E00E94AC0169
S11304E084E00E94AC018CE00E94AC0188E10E948F
S11304F0AC0180E00E94AC0180E00E94AC0180E08D
S11305000E94AC0180E00E94AC0180E00E94AC013A
S113051082E00E94AC0187E00E94AC0185E00E9469
S1130520AC018FE10E94AC0180E00E94AC0180E04C
S11305300E94AC0160E182E00E94CB0180E00E9455
S1130540AC016FE082E00E94CB0181E00E94AC012B
S11305506EE082E00E94CB0182E00E94AC016DE07B
S113056082E00E94CB0183E00E94AC016BE082E058
S11305700E94CB0180E00E94AC016AE082E00E940C
S1130580CB0184E00E94AC0169E082E00E94CB01CF
S113059085E00E94AC0168E082E00E94CB0186E025
S11305A00E94AC0167E082E00E94CB0140E062E07F
S11305B082E40E94B10040E061E082E40E94B10064
S11305C088E10E944B012FEB87E299E021508040A3
S11105D09040E1F700C00000F3CFF894FFCF95
S11305DE69736C616D20617368726166206D7573E9
S10905EE74616661000067
S9030000FC
